:100000000C9451010C9482010C9482010C94820195
:100010000C9482010C9482010C9482010C94820154
:100020000C9482010C9482010C9482010C94820144
:100030000C9482010C9482010C9482010C94820134
:100040000C9482010C9482010C9482010C94820124
:100050000C9482010C9482010C9482010C949704FC
:100060000C9482010C9482010C9482010C94820104
:100070000C9482010C9482010C9482010C948201F4
:100080000C9482010C9482010C9482010C948201E4
:100090000C9482010C9482010C9482010C948201D4
:1000A0000C9482010C9482010C9482010C948201C4
:1000B0000C9482010C9482010C9482010C948201B4
:1000C0000C9482010C9482010C9482010C948201A4
:1000D0000C9482010C9482010C9482010C94820194
:1000E0000C9482010C94C5020C941B070C94C6025C
:1000F0000C947A070C9414020C9425070C940202B9
:100100000C94EE010C942F070C9452070C94D5011B
:100110000C9401070C94DD010C940F020C949007D1
:100120000C94ED060C945C070C94F7060C94CF012C
:100130000C9470070C940A020C9406020C94E401CF
:100140000C940B070C9439070C94E1010C941307E1
:100150000C94F8010C9410020C94E8060C94F40131
:100160000C9466070C94EA010C9484010C94FC0135
:100170000C94E3060C9475040C9448070C94D90174
:1001800000002100240027002A002D003000330049
:1001900001010000040107010A01000022002500FE
:1001A00028002B002E003100340002010000050160
:1001B00008010B01000020002300260029002C006C
:1001C0002F003200000100000301060109010505AE
:1001D0000505070508080808020202020A0A0808BD
:1001E00004040404010101010101010103030303EB
:1001F00003030303040707070C0C0C0C0C0C0C0C7A
:100200000202020206060606060606060B0B0B0B8A
:100210000B0B0B0B010210202008081020401020AF
:1002200040800201020108040201010204081020BA
:1002300040808040201008040201800402018040B8
:100240002010080402010804020101020408102021
:100250004080010204081020408000000A0B0209BF
:100260000C0D0E0807030401000000000000000050
:10027000000000000000000000000000000000007E
:10028000000000000000121110000000000000003B
:10029000000000000000000000000000000000005E
:1002A000900711241FBECFEFD1E2DEBFCDBF00E02B
:1002B0000CBF12E0A0E0B2E0E4EBFFE000E00BBF17
:1002C00002C007900D92A234B107D9F722E0A2E450
:1002D000B2E001C01D92A736B207E1F711E0C1E517
:1002E000D1E000E006C021970109802FFE010E94A5
:1002F000D007C035D10780E00807A9F70E94E104C4
:100300000C94D8070C940000AF92BF92CF92DF926A
:10031000EF92FF920F931F93CF93DF936C017B01BA
:100320008B01040F151FEB015E01AE18BF08C0174B
:10033000D10759F06991D601ED91FC910190F081BE
:10034000E02DC6011995892B79F7C501DF91CF9171
:100350001F910F91FF90EF90DF90CF90BF90AF90E3
:1003600008958150823108F05AC0E82FF0E08827C4
:10037000E354FE4F8F4F0C94D007DD01E101CF0114
:10038000D501D9010F02E401EA01EE01F401F801FF
:10039000FC01020206020F020A02100214028091FE
:1003A00080008F77809380000895809180008F7DFA
:1003B000F9CF80918000877FF5CF84B58F7784BD9A
:1003C000089584B58F7DFBCF8091B0008F778093A7
:1003D000B00008958091B0008F7DF9CF809190009A
:1003E0008F77809390000895809190008F7DF9CF52
:1003F00080919000877FF5CF8091A0008F778093C8
:10040000A00008958091A0008F7DF9CF8091A00079
:10041000877FF5CF809120018F7780932001089509
:10042000809120018F7DF9CF80912001877FF5CFCA
:10043000CF93DF93282F30E0F901E65AFD4F8491E6
:10044000F901EC5EFD4FD491F901E253FE4FC491E6
:10045000CC23A1F081110E94B101EC2FF0E0EE0F4E
:10046000FF1FEC54FE4FA591B491EC91ED2381E078
:1004700090E009F480E0DF91CF91089580E090E072
:10048000FACF1F93CF93DF93282F30E0F901E65A7C
:10049000FD4F8491F901EC5EFD4FD491F901E253D7
:1004A000FE4FC491CC23A9F0162F81110E94B101F7
:1004B000EC2FF0E0EE0FFF1FE656FE4FA591B49132
:1004C0008FB7F894EC91111108C0D095DE23DC931E
:1004D0008FBFDF91CF911F910895DE2BF8CFCF937F
:1004E000DF9390E0FC01EC5EFD4F249182539E4F20
:1004F000FC0184918823D1F090E0880F991FFC01C2
:10050000E058FE4FA591B491FC01E656FE4FC5910F
:10051000D491623071F49FB7F8943C91822F80950A
:1005200083238C93E8812E2B28839FBFDF91CF916B
:1005300008958FB7F894EC912E2B2C938FBFF6CFA4
:100540003FB7F8948091470290914802A0914902E8
:10055000B0914A0226B5A89B05C02F3F19F001961D
:10056000A11DB11D3FBFBA2FA92F982F8827BC010D
:10057000CD01620F711D811D911D42E0660F771F35
:10058000881F991F4A95D1F70895089590E080E05B
:1005900008958F929F92AF92BF920F931F93CF9324
:1005A000DF93CDB7DEB7A1970FB6F894DEBF0FBECD
:1005B000CDBF19A2423008F44AE08E010F5D1F4FF3
:1005C000842E912CB12CA12CA50194010E94AE0780
:1005D000E62FB901CA01EA3044F5E05DD801EE9397
:1005E0008D01232B242B252B79F790E080E01097A9
:1005F00069F0FD0101900020E9F73197AF014A1B36
:100600005B0BBD018FE492E00E948401A1960FB6BE
:10061000F894DEBF0FBECDBFDF91CF911F910F9138
:10062000BF90AF909F908F900895E95CD7CFFC0169
:1006300001900020E9F73197AF01481B590BBC012D
:100640008FE492E00C948401CF93DF93EC0160E09F
:100650008E810E94410261E08E810E94410260E031
:100660008E810E9441028BE891E00197F1F7DF91C2
:10067000CF910895CF92DF92EF92FF920F931F9345
:10068000CF93DF936C017C0187E0E80EF11CD0E092
:10069000C0E0062F10E0B8010C2E02C075956795DA
:1006A0000A94E2F76170F70181917F010E94410293
:1006B0002196C430D10579F7C601DF91CF911F9102
:1006C0000F91FF90EF90DF90CF900C942403CF9286
:1006D000DF92EF92FF920F931F93CF93DF93EC0182
:1006E000F62E642F8C810E9441028D818F3F19F07C
:1006F00060E00E9441020F2D10E08F8584FF25C02D
:100700006E0187E0C80ED11CF12CE12CB8010E2C33
:1007100002C0759567950A94E2F76170F6018191C0
:100720006F010E944102FFEFEF1AFF0A88E0E8160E
:10073000F10461F7CE01DF91CF911F910F91FF90EE
:10074000EF90DF90CF900C942403B80184E075956E
:1007500067958A95E1F7CE010E943A036F2DCE018D
:10076000DF91CF911F910F91FF90EF90DF90CF908D
:100770000C943A0340E0682F8FE492E00C946703F6
:10078000CF93DF93823029F490915E02986090932A
:100790005E02809362021092630280E4809364029E
:1007A00080E18093650280E58093660261E080913C
:1007B00053020E946F02809154028F3F19F061E052
:1007C0000E946F0261E0809155020E946F02CFE4A7
:1007D000D2E09E012F54324080915E0284FD0BC016
:1007E00084E090E021962817390744F461E08E8177
:1007F0000E946F02EECF88E090E0F4CF8BE39DE0A3
:100800000197F1F760E0809153020E94410260E09D
:10081000809155020E944102809154028F3F19F04D
:1008200060E00E94410280915E0284FD39C063E075
:100830008FE492E00E943A03CBE4D6E4CE01019724
:10084000F1F763E08FE492E00E943A032197F1F719
:1008500063E08FE492E00E943A0383E592E001971F
:10086000F1F762E08FE492E00E943A0380915E0229
:1008700080620E94BA0384E080935F028CE00E9451
:10088000BA0381E00E94BA038BE39FE10197F1F77D
:1008900082E08093600286E0DF91CF910C94BA03EE
:1008A00080620E94BA038BE496E40197F1F780918D
:1008B0005E0280620E94BA0383E592E00197F1F73D
:1008C00080915E0280620E94BA03D0CF9091620252
:1008D000691710F06FEF690FE62FF0E0E15BFD4F55
:1008E0009489890F80680C94BA0341E00E946703E1
:1008F00081E090E00895CF92DF92EF92FF926B013A
:100900007C0141E06DE28FE492E00E94670366277C
:100910007727CB016C197D098E099F094AE00E9457
:10092000C9020196FF90EF90DF90CF9008951F923B
:100930000F920FB60F9211242F933F938F939F9393
:10094000AF93BF938091430290914402A0914502DE
:10095000B09146023091420223E0230F2D3758F523
:100960000196A11DB11D20934202809343029093F2
:100970004402A0934502B0934602809147029091B1
:100980004802A0914902B0914A020196A11DB11DF1
:100990008093470290934802A0934902B0934A0281
:1009A000BF91AF919F918F913F912F910F900FBE6B
:1009B0000F901F90189526E8230F0296A11DB11DD8
:1009C000D2CF789484B5826084BD84B5816084BDC3
:1009D00085B5826085BD85B5816085BD80916E00DD
:1009E000816080936E00109281008091810082600E
:1009F000809381008091810081608093810080914B
:100A000080008160809380008091B1008460809339
:100A1000B1008091B00081608093B000809191001E
:100A20008260809391008091910081608093910019
:100A3000809190008160809390008091A1008260FD
:100A40008093A1008091A10081608093A10080919A
:100A5000A00081608093A00080912101826080933A
:100A600021018091210181608093210180912001E9
:100A700081608093200180917A00846080937A0065
:100A800080917A00826080937A0080917A00816000
:100A900080937A0080917A00806880937A00109227
:100AA000C10061E080E00E946F0261E081E00E948D
:100AB0006F0261E082E00E946F0261E083E00E94C9
:100AC0006F0261E080E00E94410261E081E00E94EB
:100AD000410261E082E00E94410261E083E00E9405
:100AE000410262E084E00E946F0262E085E00E94C1
:100AF0006F0262E086E00E946F0262E087E00E947F
:100B00006F0282E00E94C00361E086E30E946F02F0
:100B100061E087E30E946F0261E088E30E946F0258
:100B20008CE192E00E94170361E080E00E9466047D
:100B30008BE292E00E94170362E080E00E9466046C
:100B400083E392E00E94170328EE222E23E0322E48
:100B500000E010E03CE2E32EFF24F39448EBC42EC7
:100B60004BE0D42ED0E0C0E09C2E60E08C2F0E94A1
:100B70004102B12CA12C94E0892E8A0C882D0E9470
:100B8000180230E020E0892B31F4882D0E941802F1
:100B900021E030E0F8CF21303105A9F461E0892D62
:100BA0000E944102CC0FDD1FCC0FDD1FC45FDD4F63
:100BB000CA0DDB1D8881811116C00115110591F246
:100BC0000E940000CFCF2FEFA21AB20A84E0A8162D
:100BD000B10489F661E0892D0E9441022196C4305A
:100BE000D10511F6EACF813409F4A3C0B4F590ED34
:100BF000980F9A3008F47FC061E087E00E94660495
:100C00008AE392E00E94170361E087E00E94660495
:100C100060914D0270914E02072E000C880B990BCB
:100C200097FF76C10E947B0462E086E00E94660422
:100C30008BE392E00E94170362E086E00E94660464
:100C400060914B0270914C02072E000C880B990B9F
:100C500097FF62C10E947B04B0CF833409F481C046
:100C60000CF46CC0843441F6C0914D02D0914E0218
:100C700061E088E30E946F02209709F07EC060E087
:100C800088E30E94410261E086E30E94410260E045
:100C900087E30E94410280914B0290914C02829D19
:100CA0004001839D900C929D900C1124092C000C06
:100CB000AA08BB080E94A0022B013C0181149104E8
:100CC000A104B10409F41BC10E94A00264197509B2
:100CD00086099709683E73408105910578F3F1E034
:100CE0008F1A9108A108B10828EE420E23E0521E87
:100CF000611C711CE3CF40914D0250914E029AE06D
:100D0000949F9001959F300D1124082E000C990B93
:100D1000C097820F931F893BEBE09E072CF49093C2
:100D20004E0280934D0268CFD0924E02C0924D0287
:100D300063CF10924E0210924D025ECF80914B0213
:100D400090914C020A968D32F1E09F072CF490931B
:100D50004C0280934B0250CFF0924C02E0924B0237
:100D60004BCF80914B0290914C020A9797FFEFCFA7
:100D700010924C0210924B023FCFCF3FD10511F49D
:100D800061E07ECFE2E9F2E08491EFEFE80FE2313B
:100D900008F0B0C0F0E08827EF52F94F8F4F0C9465
:100DA000D007E306E806ED06F70601077A070B070A
:100DB00013071B0725072F073907480752077A072C
:100DC0005C076607700784B5806884BDC7BD5BCFCC
:100DD00084B5806284BDC8BD56CF80918000806894
:100DE00080938000D0938900C09388004CCF80917D
:100DF0008000806280938000D0938B00C0938A0033
:100E000042CF80918000886080938000D0938D00D5
:100E1000C0938C0038CF8091B00080688093B00080
:100E2000C093B30030CF8091B00080628093B00057
:100E3000C093B40028CF8091900080688093900088
:100E4000D0939900C09398001ECF8091900080624B
:100E500080939000D0939B00C0939A0014CF809110
:100E60009000886080939000D0939D00C0939C0078
:100E70000ACF8091A00080688093A0008091A0009C
:100E80008F7B8093A000D093A900C093A800FBCED5
:100E90008091A00080628093A000D093AB00C093AB
:100EA000AA00F1CE8091A00088608093A000D0932A
:100EB000AD00C093AC00E7CE8091200180688093A4
:100EC0002001D0932901C0932801DDCE809120011B
:100ED000806280932001D0932B01C0932A01D3CE4E
:100EE00080912001886080932001D0932D01C093D0
:100EF0002C01C9CEC038D1050CF042CFC0CE60E085
:100F000086E30E94410260E087E30E94410274CEC2
:100F10004AE00E94C90288CE4AE00E94C9024DCE32
:100F2000EFE4F2E01382128284E092E09183808306
:100F300088E084838FEF858389E086838AE08783D6
:100F40008BE080878CE081878DE082871386148612
:100F500015861686178681E00C94C003A1E21A2E2E
:100F6000AA1BBB1BFD010DC0AA1FBB1FEE1FFF1F4D
:100F7000A217B307E407F50720F0A21BB30BE40B9D
:100F8000F50B661F771F881F991F1A9469F76095E4
:100F90007095809590959B01AC01BD01CF0108959E
:100FA000EE0FFF1F881F8BBF0790F691E02D19945D
:040FB000F894FFCFE3
:100FB4000000000075048401C602C50231323341C9
:100FC40034353642373839432A3023444D6F746FF1
:100FD4007220436F6E74726F6C3A0053706565646F
:100FE4003A200054696D653A2000202020202020FA
:020FF4002000DB
:00000001FF
